{
  "_format": "hh-sol-artifact-1",
  "contractName": "Airdrop",
  "sourceName": "contracts/Airdrop.sol",
  "abi": [
    {
      "inputs": [
        {
          "internalType": "address",
          "name": "_tokenAddr",
          "type": "address"
        }
      ],
      "stateMutability": "nonpayable",
      "type": "constructor"
    },
    {
      "anonymous": false,
      "inputs": [
        {
          "indexed": false,
          "internalType": "address",
          "name": "beneficiary",
          "type": "address"
        },
        {
          "indexed": false,
          "internalType": "uint256",
          "name": "amount",
          "type": "uint256"
        }
      ],
      "name": "EtherTransfer",
      "type": "event"
    },
    {
      "anonymous": false,
      "inputs": [
        {
          "indexed": true,
          "internalType": "address",
          "name": "previousOwner",
          "type": "address"
        },
        {
          "indexed": true,
          "internalType": "address",
          "name": "newOwner",
          "type": "address"
        }
      ],
      "name": "OwnershipTransferred",
      "type": "event"
    },
    {
      "inputs": [
        {
          "internalType": "address[]",
          "name": "_recipients",
          "type": "address[]"
        },
        {
          "internalType": "uint256[]",
          "name": "_amount",
          "type": "uint256[]"
        }
      ],
      "name": "dropTokens",
      "outputs": [
        {
          "internalType": "bool",
          "name": "",
          "type": "bool"
        }
      ],
      "stateMutability": "nonpayable",
      "type": "function"
    },
    {
      "inputs": [],
      "name": "owner",
      "outputs": [
        {
          "internalType": "address",
          "name": "",
          "type": "address"
        }
      ],
      "stateMutability": "view",
      "type": "function"
    },
    {
      "inputs": [],
      "name": "renounceOwnership",
      "outputs": [],
      "stateMutability": "nonpayable",
      "type": "function"
    },
    {
      "inputs": [],
      "name": "tokenAddr",
      "outputs": [
        {
          "internalType": "address",
          "name": "",
          "type": "address"
        }
      ],
      "stateMutability": "view",
      "type": "function"
    },
    {
      "inputs": [
        {
          "internalType": "address",
          "name": "newOwner",
          "type": "address"
        }
      ],
      "name": "transferOwnership",
      "outputs": [],
      "stateMutability": "nonpayable",
      "type": "function"
    },
    {
      "inputs": [
        {
          "internalType": "address",
          "name": "newTokenAddr",
          "type": "address"
        }
      ],
      "name": "updateTokenAddress",
      "outputs": [],
      "stateMutability": "nonpayable",
      "type": "function"
    },
    {
      "inputs": [
        {
          "internalType": "address",
          "name": "beneficiary",
          "type": "address"
        }
      ],
      "name": "withdrawTokens",
      "outputs": [],
      "stateMutability": "nonpayable",
      "type": "function"
    }
  ],
  "bytecode": "0x60806040523480156200001157600080fd5b50604051620010cb380380620010cb833981810160405281019062000037919062000182565b620000576200004b6200009f60201b60201c565b620000a760201b60201c565b80600160006101000a81548173ffffffffffffffffffffffffffffffffffffffff021916908373ffffffffffffffffffffffffffffffffffffffff16021790555050620001fc565b600033905090565b60008060009054906101000a900473ffffffffffffffffffffffffffffffffffffffff169050816000806101000a81548173ffffffffffffffffffffffffffffffffffffffff021916908373ffffffffffffffffffffffffffffffffffffffff1602179055508173ffffffffffffffffffffffffffffffffffffffff168173ffffffffffffffffffffffffffffffffffffffff167f8be0079c531659141344cd1fd0a4f28419497f9722a3daafe3b4186f6b6457e060405160405180910390a35050565b6000815190506200017c81620001e2565b92915050565b6000602082840312156200019557600080fd5b6000620001a5848285016200016b565b91505092915050565b6000620001bb82620001c2565b9050919050565b600073ffffffffffffffffffffffffffffffffffffffff82169050919050565b620001ed81620001ae565b8114620001f957600080fd5b50565b610ebf806200020c6000396000f3fe608060405234801561001057600080fd5b506004361061007d5760003560e01c80636691461a1161005b5780636691461a146100ec578063715018a6146101085780638da5cb5b14610112578063f2fde38b146101305761007d565b806349df728c146100825780635422bdb51461009e5780635fbe4d1d146100ce575b600080fd5b61009c60048036038101906100979190610a62565b61014c565b005b6100b860048036038101906100b39190610a8b565b61032d565b6040516100c59190610c60565b60405180910390f35b6100d6610587565b6040516100e39190610c1c565b60405180910390f35b61010660048036038101906101019190610a62565b6105ad565b005b61011061066d565b005b61011a6106f5565b6040516101279190610c1c565b60405180910390f35b61014a60048036038101906101459190610a62565b61071e565b005b610154610816565b73ffffffffffffffffffffffffffffffffffffffff166101726106f5565b73ffffffffffffffffffffffffffffffffffffffff16146101c8576040517f08c379a00000000000000000000000000000000000000000000000000000000081526004016101bf90610c9b565b60405180910390fd5b600160009054906101000a900473ffffffffffffffffffffffffffffffffffffffff1673ffffffffffffffffffffffffffffffffffffffff1663a9059cbb82600160009054906101000a900473ffffffffffffffffffffffffffffffffffffffff1673ffffffffffffffffffffffffffffffffffffffff166370a08231306040518263ffffffff1660e01b81526004016102629190610c1c565b60206040518083038186803b15801561027a57600080fd5b505afa15801561028e573d6000803e3d6000fd5b505050506040513d601f19601f820116820180604052508101906102b29190610b20565b6040518363ffffffff1660e01b81526004016102cf929190610c37565b602060405180830381600087803b1580156102e957600080fd5b505af11580156102fd573d6000803e3d6000fd5b505050506040513d601f19601f820116820180604052508101906103219190610af7565b61032a57600080fd5b50565b6000610337610816565b73ffffffffffffffffffffffffffffffffffffffff166103556106f5565b73ffffffffffffffffffffffffffffffffffffffff16146103ab576040517f08c379a00000000000000000000000000000000000000000000000000000000081526004016103a290610c9b565b60405180910390fd5b60005b835181101561057c57600073ffffffffffffffffffffffffffffffffffffffff16848281518110610408577f4e487b7100000000000000000000000000000000000000000000000000000000600052603260045260246000fd5b602002602001015173ffffffffffffffffffffffffffffffffffffffff16141561043157600080fd5b600160009054906101000a900473ffffffffffffffffffffffffffffffffffffffff1673ffffffffffffffffffffffffffffffffffffffff1663a9059cbb8583815181106104a8577f4e487b7100000000000000000000000000000000000000000000000000000000600052603260045260246000fd5b60200260200101518584815181106104e9577f4e487b7100000000000000000000000000000000000000000000000000000000600052603260045260246000fd5b60200260200101516040518363ffffffff1660e01b815260040161050e929190610c37565b602060405180830381600087803b15801561052857600080fd5b505af115801561053c573d6000803e3d6000fd5b505050506040513d601f19601f820116820180604052508101906105609190610af7565b61056957600080fd5b808061057490610d9d565b9150506103ae565b506001905092915050565b600160009054906101000a900473ffffffffffffffffffffffffffffffffffffffff1681565b6105b5610816565b73ffffffffffffffffffffffffffffffffffffffff166105d36106f5565b73ffffffffffffffffffffffffffffffffffffffff1614610629576040517f08c379a000000000000000000000000000000000000000000000000000000000815260040161062090610c9b565b60405180910390fd5b80600160006101000a81548173ffffffffffffffffffffffffffffffffffffffff021916908373ffffffffffffffffffffffffffffffffffffffff16021790555050565b610675610816565b73ffffffffffffffffffffffffffffffffffffffff166106936106f5565b73ffffffffffffffffffffffffffffffffffffffff16146106e9576040517f08c379a00000000000000000000000000000000000000000000000000000000081526004016106e090610c9b565b60405180910390fd5b6106f3600061081e565b565b60008060009054906101000a900473ffffffffffffffffffffffffffffffffffffffff16905090565b610726610816565b73ffffffffffffffffffffffffffffffffffffffff166107446106f5565b73ffffffffffffffffffffffffffffffffffffffff161461079a576040517f08c379a000000000000000000000000000000000000000000000000000000000815260040161079190610c9b565b60405180910390fd5b600073ffffffffffffffffffffffffffffffffffffffff168173ffffffffffffffffffffffffffffffffffffffff16141561080a576040517f08c379a000000000000000000000000000000000000000000000000000000000815260040161080190610c7b565b60405180910390fd5b6108138161081e565b50565b600033905090565b60008060009054906101000a900473ffffffffffffffffffffffffffffffffffffffff169050816000806101000a81548173ffffffffffffffffffffffffffffffffffffffff021916908373ffffffffffffffffffffffffffffffffffffffff1602179055508173ffffffffffffffffffffffffffffffffffffffff168173ffffffffffffffffffffffffffffffffffffffff167f8be0079c531659141344cd1fd0a4f28419497f9722a3daafe3b4186f6b6457e060405160405180910390a35050565b60006108f56108f084610cec565b610cbb565b9050808382526020820190508285602086028201111561091457600080fd5b60005b85811015610944578161092a88826109ba565b845260208401935060208301925050600181019050610917565b5050509392505050565b600061096161095c84610d18565b610cbb565b9050808382526020820190508285602086028201111561098057600080fd5b60005b858110156109b057816109968882610a38565b845260208401935060208301925050600181019050610983565b5050509392505050565b6000813590506109c981610e44565b92915050565b600082601f8301126109e057600080fd5b81356109f08482602086016108e2565b91505092915050565b600082601f830112610a0a57600080fd5b8135610a1a84826020860161094e565b91505092915050565b600081519050610a3281610e5b565b92915050565b600081359050610a4781610e72565b92915050565b600081519050610a5c81610e72565b92915050565b600060208284031215610a7457600080fd5b6000610a82848285016109ba565b91505092915050565b60008060408385031215610a9e57600080fd5b600083013567ffffffffffffffff811115610ab857600080fd5b610ac4858286016109cf565b925050602083013567ffffffffffffffff811115610ae157600080fd5b610aed858286016109f9565b9150509250929050565b600060208284031215610b0957600080fd5b6000610b1784828501610a23565b91505092915050565b600060208284031215610b3257600080fd5b6000610b4084828501610a4d565b91505092915050565b610b5281610d55565b82525050565b610b6181610d67565b82525050565b6000610b74602683610d44565b91507f4f776e61626c653a206e6577206f776e657220697320746865207a65726f206160008301527f64647265737300000000000000000000000000000000000000000000000000006020830152604082019050919050565b6000610bda602083610d44565b91507f4f776e61626c653a2063616c6c6572206973206e6f7420746865206f776e65726000830152602082019050919050565b610c1681610d93565b82525050565b6000602082019050610c316000830184610b49565b92915050565b6000604082019050610c4c6000830185610b49565b610c596020830184610c0d565b9392505050565b6000602082019050610c756000830184610b58565b92915050565b60006020820190508181036000830152610c9481610b67565b9050919050565b60006020820190508181036000830152610cb481610bcd565b9050919050565b6000604051905081810181811067ffffffffffffffff82111715610ce257610ce1610e15565b5b8060405250919050565b600067ffffffffffffffff821115610d0757610d06610e15565b5b602082029050602081019050919050565b600067ffffffffffffffff821115610d3357610d32610e15565b5b602082029050602081019050919050565b600082825260208201905092915050565b6000610d6082610d73565b9050919050565b60008115159050919050565b600073ffffffffffffffffffffffffffffffffffffffff82169050919050565b6000819050919050565b6000610da882610d93565b91507fffffffffffffffffffffffffffffffffffffffffffffffffffffffffffffffff821415610ddb57610dda610de6565b5b600182019050919050565b7f4e487b7100000000000000000000000000000000000000000000000000000000600052601160045260246000fd5b7f4e487b7100000000000000000000000000000000000000000000000000000000600052604160045260246000fd5b610e4d81610d55565b8114610e5857600080fd5b50565b610e6481610d67565b8114610e6f57600080fd5b50565b610e7b81610d93565b8114610e8657600080fd5b5056fea26469706673582212207789d95c166c6d8921e3e2de521f9a66c6aff633817aa59e55bd2eb2c063c08b64736f6c63430008000033",
  "linkReferences": {},
  "deployedLinkReferences": {}
}